:020000040800F2
:10000000880800208D01000895010008970100086C
:10001000990100089B0100089D01000800000000F4
:100020000000000000000000000000009F01000828
:10003000A101000800000000A3010008A5010008BC
:10004000A7010008A7010008A7010008A7010008F0
:10005000A7010008A7010008A7010008A7010008E0
:10006000A7010008A7010008A7010008A7010008D0
:10007000A7010008A701000805040008A70100085F
:10008000A7010008A7010008A7010008A7010008B0
:10009000A7010008A7010008A7010008A7010008A0
:1000A000A7010008A7010008A7010008A701000890
:1000B000A7010008A7010008A7010008A701000880
:1000C000A7010008A7010008A7010008A701000870
:1000D000A7010008910B0008A7010008A70100086C
:1000E000A7010008A7010008A701000800F002F816
:1000F00000F03CF80AA090E8000C82448344AAF186
:100100000107DA4501D100F031F8AFF2090EBAE883
:100110000F0013F0010F18BFFB1A43F0010318473B
:10012000B4150000D4150000103A24BF78C878C177
:10013000FAD8520724BF30C830C144BF04680C60ED
:10014000704700000023002400250026103A28BF35
:1001500078C1FBD8520728BF30C148BF0B60704739
:100160001FB500F037F81FBD10B510BD00F04AF8FC
:100170001146FFF7F5FF01F097F800F068F803B4B7
:10018000FFF7F2FF03BC00F037F800000948804792
:1001900009480047FEE7FEE7FEE7FEE7FEE7FEE769
:1001A000FEE7FEE7FEE7FEE704480549054A064B81
:1001B00070470000D1090008ED0000088802002007
:1001C00088080020880400208804002070477047B9
:1001D0007047000070B5064C7C44064D7D4403E03A
:1001E000206820448047241DAC42F9D170BD000036
:1001F000181500001815000001491820ABBEFEE7D5
:1002000026000200754600F029F8AE460500694652
:10021000534620F00700854618B020B5FFF7C4FF0D
:10022000BDE820404FF000064FF000074FF00008F7
:100230004FF0000B21F00701AC46ACE8C009ACE878
:10024000C009ACE8C009ACE8C0098D467047044657
:10025000AFF300802046FFF792FF00000048704790
:1002600024020020704721B1826842F001028260BE
:1002700003E0826822F001028260704721B1826847
:1002800042F48072826003E0826822F480728260AD
:10029000704721B1826842F48012826003E0826874
:1002A00022F4801282607047014600208A6802F0C2
:1002B00004020AB1012000E000207047014600203E
:1002C0008A6802F008020AB1012000E000207047AD
:1002D00030B502460020002350680F4C20400D79B5
:1002E0000C6844EA05242043506090680B4C204081
:1002F000D1E902542C434D7944EA450420439060EF
:10030000D06A20F470000C7C641EE4B2234340EAFF
:100310000350D06230BD0000FFFEF0FFFDF7F1FF9B
:10032000F0B504460D4600200021092D11DDE068DE
:10033000A5F10A0606EB4607072606FA07F18843E9
:10034000A5F10A0606EB460603FA06F10843E0604B
:100350000CE0206905EB4507072606FA07F18843FC
:1003600005EB450603FA06F108432061072A0FDA78
:10037000606B561E06EB86071F2606FA07F18843B8
:10038000561E06EB860605FA06F10843606322E076
:100390000D2A0FDA206BD61F06EB86071F2606FAFA
:1003A00007F18843D61F06EB860605FA06F10843D7
:1003B000206310E0E06AA2F10D0606EB86071F2617
:1003C00006FA07F18843A2F10D0606EB860605FA48
:1003D00006F10843E062F0BD816841F008018160E8
:1003E000704721B1826842F4A002826003E0826813
:1003F00022F4A00282607047816841F004018160AC
:100400007047000010B5064800F0F4FE4FF40050AD
:1004100000F008F84FF4005000F012F810BD000092
:100420004801002000F0805111B10349086001E04B
:100430000249486070470000040402400000024086
:1004400000F0805111B10349086001E002494860A1
:1004500070470000040402400000024021B102681D
:1004600042F00102026004E002684FF6FE731A4097
:100470000260704701684FF6FE7211400160002172
:10048000016041608160C1604B49884208D14A499E
:100490000839496841F00F01474A083A51608AE03B
:1004A00045491431884208D143490839496841F027
:1004B000F001414A083A51607DE03F4928318842C5
:1004C00008D13D490839496841F470613A4A083A0F
:1004D000516070E038493C31884208D136490839CA
:1004E000496841F47041344A083A516063E0324946
:1004F0005031884208D130490839496841F47021A7
:100500002D4A083A516056E02B496431884208D19F
:1005100029490839496841F47001274A083A51606D
:1005200049E025497831884208D12349083949688A
:1005300041F07061204A083A51603CE01F4988420E
:1005400006D1011F096841F00F01021F116032E05E
:100550001A491431884208D11849091F096841F025
:10056000F001164A121F116025E014492831884213
:1005700008D11249091F096841F470610F4A121F1E
:10058000116018E00D493C31884208D10B49091F20
:10059000096841F47041094A121F11600BE00749D4
:1005A0005031884207D10549091F096841F470217B
:1005B000024A121F116070470800024008040240FE
:1005C0001AB103680B43036002E003688B430360C6
:1005D000704710B50022026847F6F0739A430C6A20
:1005E0008B6823430C6923434C6923438C69234361
:1005F000CC6923434C6A23438C6A23431A43026029
:10060000CB6843600B6883604B68C36010BD2DE905
:10061000F041024600250026002000230024002788
:1006200091F803C00CF00F0591F803C00CF0100C0A
:10063000BCF1000F03D091F802C04CEA050591F817
:1006400000C0BCF1000F31D0146800202BE04FF047
:10065000010C0CFA00F3B1F800C00CEA03069E424C
:1006600020D183004FF00F0C0CFA03F7BC4305FABE
:1006700003FC4CEA040491F803C0BCF1280F06D136
:100680004FF0010C0CFA00FCC2F814C00AE091F81B
:1006900003C0BCF1480F05D14FF0010C0CFA00FC6F
:1006A000C2F810C0401C0828D1D31460B1F800C0B3
:1006B000BCF1FF0F34DD546800202EE000F1080C7F
:1006C0004FF0010808FA0CF3B1F800C00CEA030679
:1006D0009E4221D183004FF00F0C0CFA03F7BC436C
:1006E00005FA03FC4CEA040491F803C0BCF1280F9E
:1006F00005D100F1080C08FA0CF8C2F8148091F842
:1007000003C0BCF1480F07D100F1080C4FF00108FD
:1007100008FA0CF8C2F81080401C0828CED35460A8
:10072000BDE8F08170B5002100230F22C47804B326
:10073000154C246804F4E064C4F5E064210AC1F1B6
:100740000403CA40447804FA03F184781440214336
:1007500009010E4C0678A155047804F01F05012408
:10076000AC4005786D11AD0005F1E025C5F80041FC
:1007700009E0047804F01F050124AC40044D06781C
:10078000761145F8264070BD0CED00E000E400E075
:1007900080E100E001460020034A506820F4404018
:1007A00008435060704700000010024029B1064A1B
:1007B00052690243044B5A6104E0034A526982437E
:1007C000014B5A61704700000010024029B1064AEF
:1007D000D2690243044BDA6104E0034AD2698243DE
:1007E000014BDA61704700000010024029B1064A4F
:1007F00092690243044B9A6104E0034A926982437E
:10080000014B9A61704700000010024030B5002192
:100810000022002400232D4D6D6805F00C0121B14C
:10082000042905D0082923D105E0294D056022E0DF
:10083000284D05601FE0254D6D6805F47012234DAD
:100840006D6805F48034022505EB92421CB9224DF7
:10085000554305600BE01D4D6D6805F400351DB175
:100860001E4D5543056002E01A4D5543056002E0F8
:10087000174D056000BF00BF144D6D6805F0F00115
:100880000909174D6B5C0568DD4045600F4D6D68CB
:1008900005F4E061090A124D6B5C4568DD40856036
:1008A0000A4D6D6805F46051C90A0D4D6B5C4568D1
:1008B000DD40C560054D6D6805F44041890B094D6B
:1008C0006B5CC568B5FBF3F5056130BD00100240F7
:1008D00000127A00001BB70000093D00808D5B000C
:1008E0001C0000202C00002010B500F001F810BD05
:1008F0000CB50020019000903348006840F480302F
:100900003149086000BF3048006800F400300090B2
:100910000198401C0190009818B90198B0F5A06F9B
:10092000F1D12948006800F4003010B10120009096
:1009300001E0002000900098012843D1234800687E
:1009400040F01000214908600846006820F00300CC
:1009500008600846006840F0020008601A484068D5
:10096000194948600846406848600846406840F4B5
:10097000806048600846406820F47C104860084663
:10098000406840F4E81048600846006840F0807015
:10099000086000BF0C48006800F000700028F9D023
:1009A0000948406820F0030007494860084640684D
:1009B00040F00200486000BF0348406800F00C00AF
:1009C0000828F9D10CBD00000010024000200240B0
:1009D00010B51348006840F001001149086008464E
:1009E0004068104908400E494860084600680E49B2
:1009F00008400B4908600846006820F48020086021
:100A00000846406820F4FE0048604FF41F008860EC
:100A1000FFF76AFF4FF000600449086010BD000056
:100A2000001002400000FFF8FFFFF6FE08ED00E0B6
:100A300021B1028842F00102028004E002884FF6F0
:100A4000FE731A400280704770B500220023002414
:100A5000058C4EF6FF7635400584038C8488828BA6
:100A600048F6FF752A404FF6FF452A400D884FF69D
:100A7000FF7606EA05252A434DF6FF752B400D89C2
:100A800006EA05352B434D8806EA05352B430B4D09
:100A9000A84202D00A4DA84208D14BF6FF752C405F
:100AA0008D894FF6FF7606EA85152C438480828374
:100AB000CD88A0F84050038470BD0000002C014098
:100AC0000034014082884FF68F731A4082808288FA
:100AD0000A43828070470000002202881D4B984222
:100AE0000ED01D4B98420BD0B0F1804F08D01B4B5D
:100AF000984205D01A4B984202D01A4B984204D122
:100B00004FF68F731A404B881A43174B984207D001
:100B1000164B984204D04FF6FF431A40CB881A4335
:100B200002808B8883850B8803850A4B98420BD003
:100B3000094B984208D00E4B984205D00D4B984275
:100B400002D00D4B984201D10B7A03860123838298
:100B500070470000002C01400034014000040040B8
:100B600000080040000C004000100040001400404D
:100B70000040014000440140004801404FF6FF7131
:100B8000818000210180C180418001727047000096
:100B900010B540F22551064800F023F810B1054881
:100BA00000F022FB40F22771014800F01AF810BD56
:100BB000003801404801002021B1828942F40052EE
:100BC000828104E082894DF6FF731A40828170476A
:100BD0001AB1838A0B43838202E0838A8B43838228
:100BE000704770B50246002400230025002040F61F
:100BF0006A16B14200D100BFC1F3421501F01F03D4
:100C0000012606FA03F3012D02D19689334006E04E
:100C1000022D02D1168A334001E0968A33400C122D
:100C2000012606FA04F41688344013B10CB10120F1
:100C300000E0002070BDF0B503460024002600252A
:100C4000002040F66A17B94200D100BF1846C1F330
:100C5000421401F01F06012707FA06F5012C01D105
:100C60000C3004E0022C01D1103000E014301AB135
:100C700007682F43076002E00768AF430760F0BDD5
:100C80002DE9F04786B005460E460024A24600BF77
:100C9000A1460027B08900B100BF2F462C8A4CF630
:100CA000FF700440F08804432C82AC894EF6F310A8
:100CB0000440B08831890843718908430443AC81FA
:100CC000AC8A4FF6FF400440B0890443AC8201A8CF
:100CD000FFF79CFD1F48874202D1DDF810A001E01C
:100CE000DDF80CA0A88900F4004040B10AEBCA006E
:100CF00000EB0A1031684900B0FBF1F807E00AEB9D
:100D0000CA0000EB0A1031688900B0FBF1F86420DA
:100D1000B8FBF0F004012009642101FB1089A889C7
:100D200000F4004040B1322000EBC900B0FBF1F00C
:100D300000F00700044308E0322000EB09106421B2
:100D4000B0FBF1F000F00F0004432C8106B0BDE8C9
:100D5000F0870000003801404FF416510160002177
:100D60008180C18001810C214181002181817047F6
:100D700008B50120ADF8000003208DF80200102016
:100D80008DF8030069460248FFF741FC08BD0000EA
:100D90000008014030B599B004464FF40040FFF719
:100DA000F9FC01210846FFF701FD012140F2052071
:100DB000FFF71CFD0120ADF8600000208DF86300F6
:100DC00018A95348FFF723FC0220ADF8600000206B
:100DD0008DF8630018A94E48FFF719FC00214D4813
:100DE000FFF73CFB4B48FFF745FB4B4D05F14C0033
:100DF0000D90A01D0E9000200F900220109000205A
:100E000011908020129040001390800014902020B8
:100E1000159000021690002017900DA93D48FFF78D
:100E2000D8FB01213B48FFF719FB00200890012067
:100E30008DF8240000208DF825004FF420200A9022
:100E400000200B9002208DF8300008A92846FFF7FB
:100E50003FFA0523012200212846FFF761FA052306
:100E6000022201212846FFF75BFA01212846FFF7FD
:100E700005FA01212846FFF7F6F901212846FFF778
:100E800008FA2846FFF7A8FA00BF2348FFF716FA2A
:100E90000028FAD12048FFF7AFFA00BF1E48FFF73D
:100EA00003FA0028FAD101211B48FFF79AFA012121
:100EB0000420FFF78BFC05A8FFF760FE4FF4B46039
:100EC000ADF818000020ADF81400ADF81A00ADF828
:100ED000160005A91148FFF7FFFD6020ADF80400DA
:100EE0000120ADF806007F20ADF80A000220ADF821
:100EF0000C0070210948FFF7E5FD01A90748FFF73D
:100F0000A3FD01210548FFF793FD19B030BD000096
:100F10000008014008000240002401400008004091
:100F200010B50446204600F015F80446014820603C
:100F3000204610BD841600087047000010B5044616
:100F4000204600F007F8044601482060204610BD06
:100F5000941600080149016070470000A4160008BB
:100F60002DE9F04704460E46154631464FF08040C5
:100F700000F0B8FA0746294600F0BEF9054694F895
:100F80002820012101FA02F000F094FA814694F839
:100F90002820012101FA02F000F08CFA824629464D
:100FA00000F0A0FA8046494600F09CFA074600F09F
:100FB00065FAE062BDE8F08710B50446204600F00F
:100FC0005AF80446083000F056F8A0F1080408303A
:100FD00000F051F8A0F11004083000F04CF8A0F136
:100FE0001804103000F047F8A0F12804083000F091
:100FF00042F8A0F13004204610BD70B504460D46FD
:10100000164632462946204600F00AF9044604F105
:101010001400FFF7D1FFA0F1140404F1500000F018
:101020000FF9A0F1500404F18C0000F024F8A0F1B5
:101030008C043246294604F11400FFF791FF204644
:1010400070BD2DE9F04104460E46154668B2207089
:101050002278012101FA02F000F02CFA8046314694
:1010600000F040FA074600F009FA60602046BDE84B
:10107000F08141607047002141600A210170704792
:1010800030B591B0044601210846FFF78FFB0121DE
:1010900044F20500FFF7AAFB4FF48060ADF8400072
:1010A00004208DF8430010A94C48FFF7B0FA4FF424
:1010B0000070ADF8400003208DF8420018208DF834
:1010C000430010A94548FFF7A2FA454D4548FFF7F0
:1010D000D1F9281D0590201D069010200790202092
:1010E00008900020099080200A9000200B900C901E
:1010F0000D900E900F9005A93A48FFF76AFA39480B
:101100001430FFF7B7F9281D059004F1240006906C
:1011100000200790202008900020099080200A904D
:1011200000200B900C9020200D9000200E900F902E
:1011300005A92C481430FFF74CFA01A8FFF70CFE64
:101140004FF4165001900020ADF80800ADF80A00E9
:10115000ADF80C00ADF810000C20ADF80E0001A9A0
:101160002846FFF78DFD0122C0212846FFF730FDFC
:10117000012240F225512846FFF75DFD0E208DF833
:10118000000000208DF801008DF8020001208DF88C
:1011900003006846FFF7C6FA25208DF800000020FE
:1011A0008DF801008DF8020001208DF803006846DB
:1011B000FFF7B8FA01212846FFF7FEFC01220221C1
:1011C0000848FFF7FDF901210648FFF747F901211B
:1011D00004481430FFF742F911B030BD0008014057
:1011E000003801404400024090F8241080F8441078
:1011F0007047000010B504460848806C60B90021B3
:1012000006484430FFF72AF9022004498864012186
:1012100002484430FFF722F910BD000000000240F0
:1012200070B504460D4616462046FFF724FF0446D7
:1012300004F10800FFF71FFFA0F10804204670BD6D
:1012400010B504462046FFF7B7FE044610BD000067
:1012500010B50B48FFF764FE0A48FFF76FFE0A4817
:101260000A490B49016000BF0A4A0B490B48FFF7C6
:10127000C4FE0C220A490B48FFF7E3FE10BD000034
:10128000300100203C01002048010020B416000875
:10129000C81600086F12833AACC5A737900100202A
:1012A000CDCCCC3D000000201CB5FFF761FD0D4802
:1012B000FFF770FD0C48FFF73FFE0C48FFF7E0FE1C
:1012C0000B4D4FF4C0516846FFF7D3FE04466068EB
:1012D000686000BF04E0012006490860091D08603D
:1012E000F9E70000300100203C0100204801002007
:1012F00000000020100801404FF47F0C1CEAD012BF
:101300001EBF1CEAD11392EA0C0F93EA0C0F00F0F7
:10131000858090EA010F48BF42F4807240F4000CCF
:1013200041F400002CF07F4120F07F4000B5814265
:10133000A2EB03020FF2081CACEB504EC0F1000010
:101340009EF800E04FEA4E0E00FB0EFC38BF49004D
:101350004FEA2C1C02F5FA020CFB0EF34FEACE1EEC
:101360004FEA112C4FEAC1210EEB635E42EB2242A1
:101370000EFB0CFC4FEA1C5300FB03114FEA112C2F
:101380004FEA01310EFB0CFC4FEADC4C00FB0C1168
:10139000C14228BF09184CEB03335DF804EB10EB96
:1013A000410143EBC250B2F57C0F38BF704729D5DD
:1013B00012F0F00F1CBF00F1C04000F00040704779
:1013C000008182838485868788898B8C8D8E8F911E
:1013D0009293959697999A9C9D9FA0A2A3A5A7A842
:1013E000AAACAEB0B2B3B5B7B9BCBEC0C2C5C7C96E
:1013F000CCCED1D4D7D9DCDFE2E6E9ECF0F3F7FAD2
:10140000FE0000004FEA400C0CF1807CBCF17E4FE6
:1014100028BF7047B0F1C04000F02BB990EA010F2F
:101420000CEAD11348BF42F48072624538BF63456D
:1014300007D213F47F0F16D080EA010000F00040BD
:10144000704710B500F0CFF8097EFC3E00F005B8FB
:1014500080EA010000F00040704780EA010000F0DF
:10146000004000F006B912F47F0F04BF0248704735
:1014700080EA010000F0FDB80000C07F41000B0EC3
:10148000D3F19E0208D950F400034FEA032323FA54
:1014900002F048BF4042704710B500F0A4F800BF0A
:1014A00049922480002070476FF0004282EA2000B9
:1014B0007047000010F0004148BF4042B0FA80F38E
:1014C00010FA03F2C3F19D030BD051EAC35101EBB3
:1014D0001220530638BF704700F1010008BF20F00A
:1014E000010070474FF47F0C1CEAD0121EBF1CEAAB
:1014F000D11392EA0C0F93EA0C0F00F0478090EAA8
:10150000010F48BF42F480724FF0004C4CEA0020BB
:101510004CEA012102EB0302A0FB0113A2F5000239
:10152000002918BF43F001035B0028BF4FEA3303D3
:1015300042EB22425FEA132C4CEBC2502EBFBCEBB5
:10154000436FB2F57C0F70474FEA036CBCF1004F5C
:1015500008BF20F00100B2F57C0F38BF70470BD5F3
:1015600082F0FF0212F5803FC8BF704700F1C04013
:10157000D8BF00F00040704700F5000C5FEA4C0C4B
:1015800048BF7047B0F1C04000F073B890EA010F57
:101590000CEAD11348BF42F48072624538BF6345FC
:1015A00004D280EA010000F00040704710B500F05E
:1015B0001AF800BF8900013E00F007B800F009B832
:1015C0005FEA410C5FEA1C6C08D080EA010000F081
:1015D00050B85FEA400C5FEA1C6CF6D14FF0004057
:1015E000A0F5800070470EF1020E2EF0030E5EF89B
:1015F000044B244204D44FEA4102B2F17F4F11D888
:101600004FEA4003B3F17F4F0CD80ED14FEAD07CA4
:10161000B2F17F4F0CEB4C0C0CF1020C08BF4CEB01
:10162000D17C04E04FF0080C01E04FEAD17C0CEBD8
:101630004C0324FA03F404F00704B4F1040C06D2BA
:101640000EEB840CBDE810404CF0010C6047DFE865
:101650000CF0070802024FF00040A0F5800010BD1A
:101660000846420018BFD2F1807288BF00F00040E7
:1016700010BDFF2141EAD050C005704700000000B6
:101680000000000000000000950D000800000000B0
:101690000000000000000000390F000800000000FA
:1016A000000000000000000000000000000000003A
:1016B000000000000000000000000000000000002A
:1016C000000000000000000000000000000000001A
:1016D00081100008F816000800000020300000000B
:1016E00028010008281700083000002058080000D2
:1016F000440100085DFBFFFF000000000000000047
:1017000000000000000000000000000000000000D9
:1017100000000000000000000102030401020304B5
:0817200006070809020406088F
:04000005080000ED02
:00000001FF
